:020000040800F2
:100000000000022079050008C9050008C90500089C
:10001000C9050008C9050008C9050008000000005E
:10002000000000000000000000000000C9050008FA
:10003000C905000800000000C9050008C90500083E
:10004000C9050008C9050008C9050008C905000858
:10005000C9050008C9050008C9050008C905000848
:10006000C9050008C9050008C9050008C905000838
:10007000C9050008C9050008C9050008C905000828
:10008000C9050008C9050008C9050008C905000818
:10009000C9050008C9050008C9050008C905000808
:1000A000C9050008C9050008C9050008C9050008F8
:1000B000C9050008C9050008C9050008C9050008E8
:1000C000C9050008C9050008C9050008C9050008D8
:1000D000C9050008C9050008C9050008C9050008C8
:1000E000C9050008C9050008C9050008C9050008B8
:1000F000C9050008C9050008C9050008C9050008A8
:10010000C9050008C9050008C9050008C905000897
:10011000C9050008C9050008C9050008C905000887
:10012000C9050008C9050008C9050008C905000877
:10013000C90500080000000000000000C905000813
:10014000C9050008C9050008C9050008C905000857
:10015000C9050008C9050008C9050008C905000847
:10016000C9050008C9050008C9050008C905000837
:10017000C9050008C9050008C905000800000000FD
:1001800000000000C9050008000000000000000099
:10019000C90500080000000000000000C9050008B3
:1001A000000000000000000000000000C905000879
:1001B000C9050008C9050008C9050008C9050008E7
:0401C000C905000865
:1001C4000348044B834202D0034B03B118477047E2
:1001D4003804002038040020000000000548064BC5
:1001E4001B1AD90F01EBA301491002D0034B03B131
:1001F400184770473804002038040020000000002D
:1002040010B5064C237843B9FFF7DAFF044B13B15A
:100214000448AFF300800123237010BD380400208C
:1002240000000000E005000808B5044B1BB10449B8
:100234000448AFF30080BDE80840CFE700000000A9
:100244003C040020E0050008A3F5803A704700BF95
:10025400154B002B08BF114B9D46FFF7F5FF0021FE
:100264008B460F461148124A121A00F0A3F80C4BA1
:10027400002B00D098470B4B002B00D09847002050
:10028400002104000D000B4800F042F800F06AF869
:100294002000290000F01AF800F040F800000800DF
:1002A40000000000000000000000000038040020EE
:1002B40054040020410300085C06000800000020EC
:1002C40038040020380400205404002080B400AF17
:1002D4000C4B1B680B4A43F0010313600A4B1B6869
:1002E400094A23F440631360074B1B68064A43F42E
:1002F40080631360054B1B68044A83F0200313607A
:10030400F8E700BF30380240000002401400024009
:10031400002301461A46184600F09EB808B500218D
:10032400044600F0CDF8044B1868C36B03B198473A
:10033400204600F01DF900BF2006000838B5074D1F
:10034400074C2C1BA41005D0013C55F8043D9847DC
:10035400002CF9D1BDE8384000F048B95C0600082B
:100364005806000870B50F4B0F4DAB42A3EB0506C2
:1003740007D0B610002455F8043B01349847A64230
:10038400F9D800F02DF9094D094B5E1BAB424FEA39
:10039400A60606D0002455F8043B01349847A6422B
:1003A400F9D870BD50060008500600085006000831
:1003B40058060008830730B547D0541E002A3ED0A3
:1003C400CAB2034601E0013C39D303F8012B9D076F
:1003D400F9D1032C2CD9CDB205EB05250F2C05EB57
:1003E400054535D9A4F1100222F00F0C03F1100ECB
:1003F400E6444FEA121C1A46156055609560D560B4
:1004040010327245F8D10CF1010214F00C0F03EB19
:10041400021204F00F0C13D0ACF1040323F0030315
:100424000433134442F8045B9A42FBD10CF00304F6
:100434002CB1C9B21C4403F8011B9C42FBD130BD52
:1004440064461346002CF4D1F9E703461446C0E78A
:100454001A46A446E0E700BF70B4184C2568D5F8E6
:1004640048411CB365681F2D25DC38B9AB1C013528
:10047400656044F82310002070BC704704EB850CC1
:100484000228CCF88820D4F888614FF0010202FADF
:1004940005F246EA0206C4F88861CCF80831E5D1D1
:1004A400D4F88C311343C4F88C31DFE705F5A67416
:1004B400C5F84841D6E74FF0FF30DDE720060008D5
:1004C4002DE9F04F294B1F6883B0D7F8486101909C
:1004D400B6B18B464FF001084FF000097468651EF1
:1004E4000ED4013406EB8404BBF1000F0BD0D4F816
:1004F40000315B4507D0013D6B1CA4F10404F3D12A
:1005040003B0BDE8F08F73682268013BAB420CBFB7
:100514007560C4F80090002AEDD0D6F88801D6F8AA
:1005240004A008FA05F101420BD1904772685245C4
:1005340012D1D7F84831B342DDD01E46002ECDD1BA
:10054400DEE7D6F88C0101420BD1D4F88010019873
:10055400904772685245ECD0D7F84861002EBDD15F
:10056400CEE7D4F880009047E0E700BF20060008FB
:10057400FEE700BF0D488546AFF300800C480D49E7
:100584000D4A002302E0D458C4500433C4188C42EA
:10059400F9D30A4A0A4C002301E013600432A24250
:1005A400FBD3FFF7DFFEFFF791FEFEE7000002201A
:1005B40000000020380400205C06000838040020F5
:1005C40054040020FEE70000024B13B10248FFF779
:1005D4009FBE7047000000004103000800000000B7
:1005E400F8B500BFF8BC08BC9E467047F8B500BF1C
:0805F400F8BC08BC9E467047EC
:1005FC003D400B401040264035400340064014401F
:10060C000E400D4025401240284002401840094041
:10061C000A400000100000203D400B4010402640D6
:10062C0035400340064014400E400D40254012401A
:0C063C0028400240184009400A4000001D
:0806480004FCFF7F010000002B
:08065000CD0500082D02000891
:04065800050200088F
:10065C00000000000000000010000020000000005E
:10066C0000000000FC02002064030020CC030020EA
:10067C00000000000000000000000000000000006E
:10068C00000000000000000000000000000000005E
:10069C00000000000000000000000000000000004E
:1006AC00000000000000000000000000000000003E
:1006BC00000000000000000000000000000000002E
:1006CC00000000000000000000000000000000001E
:1006DC00000000000000000000000000000000000E
:1006EC0000000000000000000000000000000000FE
:1006FC0000000000000000000000000000000000EE
:10070C0000000000000000000100000000000000DC
:10071C000E33CDAB34126DE6ECDE05000B000000A1
:10072C0000000000000000000000000000000000BD
:10073C0000000000000000000000000000000000AD
:10074C00000000000000000000000000000000009D
:10075C00000000000000000000000000000000008D
:040000050800057971
:00000001FF
